:0400000080311B2808
:10000800803101300B1D00398B1E0039091C122864
:100018002000330803191128B3030B1101308B1D7D
:1000280000392700961D0039091896110900880122
:1000380080311E28FD01AE01AF01B001B101B2014E
:10004800B3012000332893238031D03045238031F9
:100058000C30452380313F3045238031AB2B68304D
:10006800210099008B0191019201200091019201D8
:100078008C0123008C01013021008C0022008C01AE
:1000880020008D0123008D01083021008D00220001
:100098008D0120008E0121008E0122008E01873003
:1000A80021009500083024008D00210095132400BC
:1000B8009011220091019301200098019C012500D4
:1000C80093019A01260093019A0124009501823038
:1000D8002200970023000C14933021009E00013069
:1000E8009D000B17951215159514151495112000E0
:1000F80095018B160B1127009401950195158B1509
:100108009611783028009D004630250091000C306B
:10011800930002309E0022000C17272080310C30FB
:100128002000B1002230B200142380318B17E62062
:10013800803128001E11250093012200970121001B
:100148009D018B1222000C13630000000C1727205E
:1001580080318B16013021009D00823022009700EB
:100168000C30250093002000901D9B28D42280315C
:1001780022008E15200031085922803106302000D7
:10018800AD000E30AC00B030AB00AB0BC928AC0BE7
:10019800C928AD0BC92822008E110E16200032087E
:1001A8005922803106302000AD000E30AC00B0304E
:1001B800AB00AB0BDD28AC0BDD28AD0BDD28220036
:1001C8000E12B72820008D19080084310C248031C4
:1001D80001302F025E3003192E020318382922003D
:1001E8008E150E1682302000A700DD30A600A60B63
:1001F800FB28A70BFB28002922008E110E12823043
:100208002000A700DD30A600A60B0829A70B0829A7
:100218000D2922008E150E1682302000A700DD3031
:10022800A600A60B1529A70B15291A2922008E113D
:100238000E1282302000A700DD30A600A60B22296E
:10024800A70B2229272922008E150E16823020009E
:10025800A700DD30A600A60B2F29A70B2F293429CC
:1002680022008E110E120800D422803122008E1531
:10027800200031085922803106302000A8000E30B5
:10028800A700B030A600A60B4729A70B4729A80B43
:10029800472922008E110E1620003208592280317B
:1002A80006302000A8000E30A700B030A600A60B2C
:1002B8005B29A70B5B29A80B5B2922000E12BF2222
:1002C800803120008D190800A230AE07FE30AF3D06
:1002D8003230F000F1012F08F3002E08F200B723A6
:1002E80080317108AF007008AE004430F000F101B1
:1002F8002F08F3002E08F200CC2380317108AF00DC
:100308007008AE0000302F02333003192E02031C90
:1003180090293230AE00AF012E08592280310B30BF
:100328002000A8001C30A7006330A600A60B9A295D
:10033800A70B9A29A80B9A296400BF2280312000B4
:100348008D190800AA01A901B008031DFB29220084
:100358008E15200031085922803106302000A8006F
:100368000E30A700B030A600A60BB829A70BB829F5
:10037800A80BB82932302000B300B3080319F929B3
:100388008D19EA293230B300A901A90A2A080319EC
:10039800CF29B103D029B10AFB303102031CD62979
:1003A8001730B100183031020318B1013108592251
:1003B800803103302000A8008830A7005630A600FE
:1003C800A60BE429A70BE429A80BE42920008D1D1E
:1003D800C12929080319C129A9012A080319F629DD
:1003E800AA01C129AA01AA0AC12922008E11200046
:1003F800300B4E2A22000E16200032085922803176
:1004080006302000A8000E30A700B030A600A60BCA
:100418000B2AA70B0B2AA80B0B2A32302000B3009B
:10042800B30803194C2A8D193D2A3230B300A901AB
:10043800A90A2A080319222AB203232AB20AFB307E
:100448003202031C292A3B30B2003C303202031826
:10045800B20132085922803103302000A8008830C8
:10046800A7005630A600A60B372AA70B372AA80BD9
:10047800372A20008D1D142A29080319142AA901D6
:100488002A080319492AAA01142AAA01AA0A142A1D
:1004980022000E12200030080319542AB001562AEF
:1004A800B001B00A14238031BF2AF7000A30F000E7
:1004B800770863238031F5000A30F00077087B2342
:1004C8008031F600BF228031752A8C159D2A0C16C2
:1004D8009D2A8C179D2A8C149D2A0C159D2A8C16F2
:1004E8009D2A7508003A0319692A013A03196B2AEB
:1004F800033A03196D2A013A03196F2A073A0319B7
:10050800712A013A0319732A9D2A8E17BC2A0D15E0
:10051800BC2A0E17BC2A8D16BC2A0D16BC2A0D172C
:10052800BC2A8D17BC2A8D14BC2A8E16BC2A0D1421
:10053800BC2A7608003A0319892A013A03198B2A3A
:10054800033A03198D2A013A03198F2A073A031926
:10055800912A013A0319932A033A0319952A013A71
:100568000319972A0F3A0319992A013A03199B2A62
:1005780028001E15080028001E1122000E118C11DB
:100588000C128C138C100C118C128E130D110E136F
:100598008D120D120D138D138D108E120D10080073
:1005A800013000238031FD000F39F5000A30F000DA
:1005B8007D0E0F399C2380317507FD000230002322
:1005C80080312000B2000F39F5000A30F000320EF9
:1005D8000F399C2380317507B20003300023803126
:1005E8002000B1000F39F5000A30F000310E0F3944
:1005F8009C237507B1000800F30093238031D030A5
:100608004523803173084523803193238031D130CD
:1006180045238031F1238031F400AB2374080800AE
:1006280093238031D03045238031003045238031F9
:100638000030452380310030452380310A30F000F6
:10064800200032087B238031F5000A30F0003208A0
:1006580063238031890EF0397507452380310A30CC
:10066800F000200031087B238031F5000A30F000CB
:10067800310863238031890EF039750745238031AD
:10068800AB2BF1000830F200F20803195D2BF203DE
:100698007108F000720A512BF036890B502B701C30
:1006A800582B22008E145A2B22008E10B023803132
:1006B800482B21008E14B02321008E100800F10071
:1006C800F30170080319792BF201F20AF01B6E2B63
:1006D800F035692BF33570087102031C762B70080E
:1006E800F1027314F036F20B6E2B73080800F20057
:1006F8000830F300F4017208F1000730F136890B75
:10070800822B74357104F400F23570087402031CEE
:100718008F2B7008F402F30B7F2B7408080022005B
:100728008E140E14A82380318E10A8230E100800F2
:10073800F200F10170087218F107F035F236F2088C
:10074800031D9E2B7108080000000000080022000D
:100758000E14A8238E140800A823803122000E143A
:10076800A8230E100800F401F501701CBF2B7208B5
:10077800F4077308F53DF235F30DF136F00C710806
:100788007004031DB92B7508F1007408F000080007
:10079800F401F501710870040319EC2BF601F60A4F
:1007A800F11BD92BF035F10DD32BF435F50D71086C
:1007B8007302031DE12B70087202031CE82B7008FA
:1007C800F2027108F33B7414F136F00CF60BD92BD6
:1007D8007508F1007408F0000800F1010830F20013
:1007E8008E14F2080319082CF20320008E1C052C25
:1007F8000130F000720A012CF035890B002C7008CA
:10080800F104B0238031F52B21008E107108080007
:1008180021009D149D180E2C1C082000A000A10189
:100828000830A035A10D890B152C21001B082000CC
:100838002004A2002108A300A401A31BA4032408E8
:10084800A500F301F2011330F100E030F0002508B3
:10085800F7002408F6002308F5002208F4005924BC
:1008680084317308A5007208A4007108A3007008F9
:10087800A200F301F2012730F1001030F000250842
:10088800F7002408F6002308F5002208F4007E2467
:100898007308A5007208A4007108A3007008A200DC
:1008A8002308AF002208AE000800F801F901FA0198
:1008B800FB01701C672C7408F8077508F93D760869
:1008C800FA3D7708FB3DF435F50DF60DF70DF336D7
:1008D800F20CF10CF00C7308720471047004031D1F
:1008E8005D2C7B08F3007A08F2007908F10078089B
:1008F800F0000800F801F901FA01FB01730872041D
:10090800710470040319B42CFC01FC0AF31B912C2C
:10091800F035F10DF20DF30D892CF835F90DFA0DBE
:10092800FB0D73087702031DA32C72087602031DC2
:10093800A32C71087502031DA32C70087402031CF4
:10094800AE2C7008F4027108F53B7208F63B730888
:10095800F73B7814F336F20CF10CF00CFC0B912CED
:100968007B08F3007A08F2007908F1007808F000B3
:02097800080075
:020000040001F9
:04000E0084D9FFDCB6
:10E000000000730000000000FF00FF00FF00FF00A1
:00000001FF
