:0400000080311B2808
:10000800803101300B1D00398B1E0039091C122864
:100018002000270803191128A7030B1101308B1D95
:1000280000392700961D0039091896110900880122
:1000380080311E28A001A101A201A301A401A501EC
:10004800A601A7011730AD003B30AE001E30AF004F
:1000580020002E2821009917191799161916991199
:10006800991019108B0191019201200091019201C0
:100078008C0123008C0121008C0122008C012000BE
:100088008D0123008D01083021008D0022008D0193
:1000980020008E0121008E0122008E018730210070
:1000A8009500083024008D0021009513240090113C
:1000B800220091019301200098019C0125009301E1
:1000C8009A01260093019A012400950182302200AA
:1000D8009700F03021009E007D309D000B1795128F
:1000E8001515951415149511200095018B160B11F3
:1000F80027009401950195158B159611DC30280081
:100108009D00A030250091000C30930002309E0025
:10011800013028009E0022000C17843130248031E1
:100128000B302000AD003B30AE00652380318B17CB
:10013800E82028001E1125009301220097012100C4
:100148009D018B1222000C13630000000C178431F0
:10015800302480318B16823097007D3021009D003D
:100168000C30250093002000901D9C28232380310B
:1001780022008E1520002D08A12280312930200070
:10018800AC006E30AB009830AA00AA0BC928AB0BA4
:10019800C928AC0BC928D02822008E110E162000C1
:1001A8002E08A122803129302000AC006E30AB002F
:1001B8009830AA00AA0BDE28AB0BDE28AC0BDE2891
:1001C800E52822000E12B72820008D190800843176
:1001D8007E24803121082004031D462922008E1523
:1001E8000E160530FD000B30FC00F230FB00FB0B57
:1001F800FB28FC0BFB28FD0BFB28022922008E1193
:100208000E120530FD000B30FC00F230FB00FB0B3A
:100218000B29FC0B0B29FD0B0B29122922008E152B
:100228000E160530FD000B30FC00F230FB00FB0B16
:100238001B29FC0B1B29FD0B1B29222922008E11CF
:100248000E120530FD000B30FC00F230FB00FB0BFA
:100258002B29FC0B2B29FD0B2B29322922008E156B
:100268000E160530FD000B30FC00F230FB00FB0BD6
:100278003B29FC0B3B29FD0B3B29422922008E110F
:100288000E1208002323803128001E15C8302500CF
:1002980091000530FD000B30FC00F230FB00FB0B39
:1002A8005329FC0B5329FD0B53295A2922008C157D
:1002B8000C168C178C140C158C160330FD000630A8
:1002C800FC007730FB00FB0B6729FC0B6729FD0B53
:1002D80067296400F12380310330FD000630FC00FB
:1002E8007730FB00FB0B7629FC0B7629FD0B762972
:1002F80064002200032480318C150C168C178C1492
:100308000C158C160330FD000630FC007730FB001E
:10031800FB0B8C29FC0B8C29FD0B8C296400F12329
:1003280080310330FD000630FC007730FB00FB0B0A
:100338009B29FC0B9B29FD0B9B29640022000324AD
:100348008C302500910022008E158431482480319C
:100358002D08A12280312930FD006E30FC00983034
:10036800FB00FB0BB529FC0BB529FD0BB529BC29F6
:1003780022008E110E168431482480312E08A122C5
:1003880080312930FD006E30FC009830FB00FB0BFB
:10039800CB29FC0BCB29FD0BCB29D22922000E122D
:1003A8001723803120008D1908002008A1228031F0
:1003B8005130FD00DC30FC003430FB00FB0BE2293F
:1003C800FC0BE229FD0BE229E929172380312000E3
:1003D8008D190800A901A801A608031D432A2200B7
:1003E8008E1520002D08A12280312930FD006E30A5
:1003F800FC009830FB00FB0BFF29FC0BFF29FD0BD1
:10040800FF29062AF4302000A700A7080319412A6B
:100418008D19322AF430A700A801A80A290803195F
:10042800172AAD03182AAD0AFB302D02031C1E2A19
:100438001730AD0018302D020318AD012D08A12288
:1004480080311530FD003730FC00CA30FB00FB0B53
:100458002B2AFC0B2B2AFD0B2B2A322A20008D1D60
:10046800092A28080319092AA801290803193E2A74
:10047800A901092AA901A90A092A22008E11200026
:10048800260B962A22000E1620002E08A122803163
:100498002930FD006E30FC009830FB00FB0B522A1F
:1004A800FC0B522AFD0B522A592AF4302000A700CF
:1004B800A7080319942A8D19852AF430A700A801E2
:1004C800A80A290803196A2AAE036B2AAE0AFB3068
:1004D8002E02031C712A3B30AE003C302E0203185A
:1004E800AE012E08A12280311530FD003730FC0006
:1004F800CA30FB00FB0B7E2AFC0B7E2AFD0B7E2AF2
:10050800852A20008D1D5C2A280803195C2AA80169
:1005180029080319912AA9015C2AA901A90A5C2AB8
:1005280022000E122000260803199C2AA6019E2AE2
:10053800A601A60A65238031172BF70017238031FF
:1005480028001E150A30F0007708B6238031F50020
:100558000A30F0007708CE238031F600C52A220041
:100568008C15F72A22000C16F72A22008C17F72A76
:1005780022008C14F72A22000C15F72A22008C1668
:10058800F72A7508003A0319B32A013A0319B62A5B
:10059800033A0319B92A013A0319BC2A073A03197D
:1005A800BF2A013A0319C22AF72A22008E17080027
:1005B80022000D15080022000E17080022008D16D3
:1005C800080022000D16080022000D17080022005E
:1005D8008D17080022008D14080022008E160800CE
:1005E80022000D1408007608003A0319D92A013AA6
:1005F8000319DC2A033A0319DF2A013A0319E22A0C
:10060800073A0319E52A013A0319E82A033A0319B4
:10061800EB2A013A0319EE2A0F3A0319F12A013A93
:10062800031D0800F42A28001E1122000E118C1147
:100638000C128C138C100C118C120324080001303E
:1006480050232000AF000F39F5000A30F0002F0EBC
:100658000F398431722480317507AF00023050237E
:100668002000AE000F39F5000A30F0002E0E0F39C9
:100678008431722480317507AE0003305023200086
:10068800AD000F39F5000A30F0002D0E0F39843116
:1006980072247507AD000800F300E6238031D030DE
:1006A80096238031730896238031E6238031D13038
:1006B800962384310E248031F40084314024740858
:1006C8000800E6238031D03096238031003096230D
:1006D80080310030962380310030962380310A30F3
:1006E800F00020002E08CE238031F5000A30F000FB
:1006F8002E08B6238031890EF0397507962380318C
:100708000A30F00020002D08CE238031F5000A3091
:10071800F0002D08B6238031890EF039750796232D
:100728008431402CF1000830F200F2080319AF2B95
:10073800F2037108F000720AA22BF036890BA12B84
:10074800701CA92B22008E14AB2B22008E10843132
:1007580029248031992B21008E14843129242100E9
:100768008E100800F100F30170080319CC2BF20178
:10077800F20AF01BC12BF035BC2BF335700871025F
:10078800031CC92B7008F1027314F036F20BC12B4D
:1007980073080800F2000830F300F4017208F10051
:1007A8000730F136890BD52B74357104F400F23516
:1007B80070087402031CE22B7008F402F30BD22BAE
:1007C8007408080022008E140E14843145248031E8
:1007D8008E10843145240E10080022008C110C1252
:1007E8008C138C100C118C128E170D150E178D167C
:1007F8000D160D178D178D148E160D1408008E13F7
:100808000D110E138D120D120D138D138D108E12E6
:100818000D100800F1010830F2008E14F2080319D7
:10082800252CF20320008E1C222C0130F000720AC5
:100838001E2CF035890B1D2C7008F10429248431F5
:10084800122C21008E1071080800452484312200E2
:100858000E1445240E1008008331E6238431D0306D
:100868008331962384310C308331962384313F3091
:10087800833196238431402C22000E1445248E1493
:10088800080000000000080008302000A200200036
:10089800A20803190800A203A40A063024020318B8
:1008A800A401A50A0A3025020318A5010A30F000A0
:1008B800240872242507A30023088231A122843149
:1008C8000230FA003730F900AC30F800F80B6A2C27
:1008D800F90B6A2CFA0B6A2C712C4B2CF200F101E3
:1008E80070087218F107F035F236F208031D742CFF
:1008F8007108080021009D149D18802C1C082000F8
:10090800A000A101A100A00121001B082000A00453
:1009180002302102593003192002031C962CA00131
:10092800A10108005830F0000230F10020087002E0
:10093800A0002108713BA1000030210233300319C7
:0E0948002002031C08003230A000A1010800AC
:020000040001F9
:04000E0084D9FFDDB5
:10E000000000730000000000FF00FF00FF00FF00A1
:00000001FF
